:1000000008C1000035C1000033C1000031C100004B
:100010002FC100002DC100002BC1000029C100002C
:1000200027C1000025C1000023C1000021C100003C
:100030001FC100001DC100001BC1000019C100004C
:1000400017C1000015C1000013C1000011C100005C
:100050000FC100000DC100000BC10000CEC20000A6
:1000600007C100000BC600003FC6000001C1000030
:10007000FFC00000FDC00000FBC00000F9C0000090
:10008000F7C00000F5C00000F3C00000F1C00000A0
:10009000EFC00000EDC00000EBC00000E9C00000B0
:1000A000E7C00000E5C00000E3C00000E1C00000C0
:1000B000DFC00000DDC00000DBC00000D9C00000D0
:1000C000D7C00000D5C00000D3C00000D1C00000E0
:1000D000CFC00000CDC00000CBC00000C9C00000F0
:1000E000C7C000002604290418041C04220460046C
:1000F0002D04310437043B043F04450449044D04F6
:100100006004530457045B0400000A0B02090C0D41
:100110000E080703040100000000000000000000BA
:1001200000000000000000000000000000000000CF
:10013000000000001211100000000000000000008C
:1001400000000000000000000000000000000102AC
:1001500010202008081020401020408002010201D9
:100160000804020101020408102040808040201091
:1001700008040201800402018040201008040201EA
:100180000804020101020408102040800102040852
:10019000102040800505050507050808080802022B
:1001A00002020A0A08080404040401010101010111
:1001B00001010303030303030303040707070C0CF4
:1001C0000C0C0C0C0C0C02020202060606060606BB
:1001D00006060B0B0B0B0B0B0B0B00002200250074
:1001E00028002B002E003100340002010000050120
:1001F00008010B0100002100240027002A002D0027
:100200003000330001010000040107010A019F01D1
:10021000A60611241FBECFEFD1E2DEBFCDBF00E0A6
:100220000CBF12E0A0E0B2E0E8E4F4E100E00BBFB4
:1002300002C007900D92AA34B107D9F723E0AAE4CF
:10024000B2E001C01D92AC31B207E1F712E0C2E1A9
:10025000D2E000E005C022970109FE010BBF2CD6B9
:10026000CE30D10780E00807B1F7F3D50C94220A0D
:10027000C7CE26E040E855E260E070E08FE792E00C
:100280009DD420E042E060E18EE592E00CD164E094
:1002900072E08EE592E0DBD560ED77E080E090E003
:1002A00019C20F931F93CF93DF938EE592E0DED0B8
:1002B00040E060E08EE592E0DED06CE072E08EE53A
:1002C00092E0C5D5EAE5F2E081818F9380818F933A
:1002D0000BE112E01F930F93CAE4D2E0DF93CF93B8
:1002E000EFD5BE018EE592E0B2D541E060E08EE54B
:1002F00092E0C1D06EE172E08EE592E0A8D5ECE527
:10030000F2E081818F9380818F931F930F93DF930E
:10031000CF93D6D5BE018EE592E099D58DB79EB725
:100320000C960FB6F8949EBF0FBE8DBF68EE73E0BB
:1003300080E090E0DF91CF911F910F91CBC1CF92E0
:10034000EF920F9387E0C82E96E0E92E05E024E0B7
:1003500049E068E08EE592E02CD10F91EF90CF90CC
:100360000895CF93DF93EC0160E08E81E3D281E0CA
:1003700090E0E7D161E08E81DDD281E090E0E1D1D3
:1003800060E08E81D7D284E690E0DF91CF91D9C131
:10039000EF92FF920F931F93CF93DF938C01C0E0F6
:1003A000D0E0E62EF12CB7010C2E02C075956795B2
:1003B0000A94E2F76170F801EC0FFD1F8781BAD251
:1003C0002196C430D10579F7C801DF91CF911F91F3
:1003D0000F91FF90EF90C5CFEF92FF920F931F9375
:1003E000CF93DF938C01C0E0D0E0E62EF12CB70173
:1003F0000C2E02C0759567950A94E2F76170F801BA
:10040000EC0FFD1F878196D22196C830D10579F770
:10041000C801DF91CF911F910F91FF90EF90A1CF75
:100420001F93CF93DF93EC01162F642F8C8182D220
:100430008D818F3F11F060E07DD28F85612F84FF29
:1004400005C0CE01DF91CF911F91C6CF70E084E04F
:10045000759567958A95E1F7CE019ADF612FCE01F8
:10046000DF91CF911F9194CF40E0DACF61E0FCDFC4
:1004700080ED97E066C1443008F043E0FC01238939
:10048000421710F04FEF420FFC01E40FF11D2489D9
:10049000260F2068622FE8CFFC016089262F246098
:1004A000208B6C60E1CF0F931F93CF93DF93EC0110
:1004B000423018F08F8588608F874B8B1C8A80E4D0
:1004C0008D8B6E8B70E0605C7F4F6F8B222329F0E9
:1004D000413019F48F8584608F8761E08C81F1D180
:1004E0008D818F3F11F061E0ECD161E08E81E9D127
:1004F00000E010E08F8584FF03C088E090E002C038
:1005000084E090E0081719074CF4FE01E00FF11F9A
:1005100061E08781D6D10F5F1F4FECCF80E593EC70
:1005200010D160E08C8106D260E08E8103D28D8193
:100530008F3F11F060E0FED16F8564FD16C063E06F
:10054000CE0126DF84E991E1FCD063E0CE0120DF1B
:1005500084E991E1F6D063E0CE011ADF86E990E00C
:10056000F0D062E0CE0114DF11C06062CE017CDF0A
:1005700084E991E1E6D06F856062CE0175DF86E99E
:1005800090E0DFD06F856062CE016EDF6F856062C4
:10059000CE016ADF84E0888BCE017EDFCE0166DF8C
:1005A00082E0898B66E0CE01DF91CF911F910F91A0
:1005B0005BCFCF92EF920F93FC011382128286E3FE
:1005C00092E09183808364838FEF858346832783C2
:1005D0000087E186C28613861486158616861786DE
:1005E00020E041E060E1CF010F91EF90CF905BCF31
:1005F00041E016DF81E090E008951F920F920FB660
:100600000F9211242F933F938F939F93AF93BF9398
:100610008091770290917802A0917902B0917A024C
:100620003091760223E0230F2D3720F40196A11D8F
:10063000B11D05C026E8230F0296A11DB11D209310
:1006400076028093770290937802A0937902B09318
:100650007A0280917B0290917C02A0917D02B09100
:100660007E020196A11DB11D80937B0290937C02B6
:10067000A0937D02B0937E02BF91AF919F918F9125
:100680003F912F910F900FBE0F901F9018953FB77D
:10069000F89480917B0290917C02A0917D02B091B0
:1006A0007E0226B5A89B05C02F3F19F00196A11D1B
:1006B000B11D3FBF6627782F892F9A2F620F711DBA
:1006C000811D911D42E0660F771F881F991F4A9573
:1006D000D1F708958F929F92AF92BF92CF92DF92FF
:1006E000EF92FF926B017C01D2DF4B015C01C114E0
:1006F000D104E104F104E1F0B6D3C9DF6819790946
:100700008A099B09683E73408105910580F321E0C9
:10071000C21AD108E108F10888EE880E83E0981E1D
:10072000A11CB11CC114D104E104F10431F7DFCFE5
:10073000FF90EF90DF90CF90BF90AF909F908F9001
:1007400008958230910538F0880F991F880F991FFE
:1007500005970197F1F70895789484B5826084BD78
:1007600084B5816084BD85B5826085BD85B58160B5
:1007700085BDEEE6F0E0808181608083E1E8F0E015
:100780001082808182608083808181608083E0E844
:10079000F0E0808181608083E1EBF0E08081846023
:1007A0008083E0EBF0E0808181608083E1E9F0E02C
:1007B000808182608083808181608083E0E9F0E0D5
:1007C000808181608083E1EAF0E0808182608083C3
:1007D000808181608083E0EAF0E0808181608083B5
:1007E000E1E2F1E0808182608083808181608083AA
:1007F000E0E2F1E0808181608083EAE7F0E08081DF
:100800008460808380818260808380818160808336
:100810008081806880831092C100089590E0FC017F
:100820003197E231F10508F04BC0EE58FF4F3EC35F
:10083000809180008F7703C0809180008F7D8093AE
:100840008000089580918000877FF9CF84B58F77ED
:1008500002C084B58F7D84BD08958091B0008F77EC
:1008600003C08091B0008F7D8093B0000895809187
:1008700090008F7707C0809190008F7D03C080919A
:100880009000877F8093900008958091A0008F77DB
:1008900007C08091A0008F7D03C08091A000877F5A
:1008A0008093A0000895809120018F7707C08091E8
:1008B00020018F7D03C080912001877F80932001DC
:1008C0000895CF93DF9390E0FC01E25BFE4F24910B
:1008D000FC01EC56FE4F8491882349F190E0880F8B
:1008E000991FFC01EC50FE4FA591B49186529E4F8A
:1008F000FC01C591D4919FB7611108C0F8948C9107
:10090000209582238C93888182230AC0623051F41F
:10091000F8948C91322F309583238C938881822B8D
:10092000888304C0F8948C91822B8C939FBFDF91B5
:10093000CF9108950F931F93CF93DF931F92CDB75D
:10094000DEB7282F30E0F901E85FFE4F8491F9010E
:10095000E25BFE4F1491F901EC56FE4F0491002327
:10096000C1F0882319F0698359DF6981E02FF0E035
:10097000EE0FFF1FE652FE4FA591B4919FB7F8947A
:100980008C91611103C01095812301C0812B8C9340
:100990009FBF0F90DF91CF911F910F910895FC01A0
:1009A000818D228D90E0805C9F4F821B91098F7317
:1009B00099270895FC01918D828D981731F0828DD1
:1009C000E80FF11D858D90E008958FEF9FEF08955A
:1009D000FC01918D828D981761F0828DDF01A80F47
:1009E000B11D5D968C91928D9F5F9F73928F90E069
:1009F00008958FEF9FEF08958DE996E0892B39F0E8
:100A000080E090E0892B19F098D1811125C080E019
:100A100090E0892B41F080E090E0892B21F00E944A
:100A2000000081111CC080E090E0892B41F080E043
:100A300090E0892B21F00E940000811113C080E01A
:100A400090E0892BA1F080E090E0892B81F00E945A
:100A5000000081110AC008950E940000D8CF0E94B2
:100A60000000E1CF0E940000EACF0C94000008953E
:100A7000FC01848DDF01A80FB11DA35ABF4F2C913B
:100A8000848D90E001968F739927848FA689B7890A
:100A90002C93A089B1898C9180648C93938D848DE3
:100AA000981306C00288F389E02D80818F7D8083B2
:100AB0000895CF93DF93EC01888D8823C1F0EA89F4
:100AC000FB89808185FD05C0A889B9898C9186FD47
:100AD0000EC00FB607FCF5CF808185FFF2CFA88945
:100AE000B9898C9185FFEDCFCE01C2DFE8CFDF91D0
:100AF000CF910895CF92DF92FF920F931F93CF93E0
:100B0000DF931F92CDB7DEB76C0181E0D601589616
:100B10008C9358975B969C915B975C968C915C97B5
:100B2000981307C05096ED91FC915197808185FDF7
:100B30002DC0F601038D10E00F5F1F4F0F731127BB
:100B4000F02EF601848DF81210C00FB607FCF9CF15
:100B5000D6015096ED91FC915197808185FFF1CFA0
:100B6000C601698385DF6981ECCF838DE80FF11DB4
:100B7000E35AFF4F6083D6015B960C935B975296C6
:100B8000ED91FC915397808180620CC0D6015696FE
:100B9000ED91FC91579760835096ED91FC915197A0
:100BA00080818064808381E090E00F90DF91CF911D
:100BB0001F910F91FF90DF90CF900895BF92CF9239
:100BC000DF92EF92FF92CF93DF93EC016A017B01FA
:100BD000B22EE889F98982E08083411581EE5807B9
:100BE0006105710599F060E079E08DE390E0A7017F
:100BF00096013AD12150310941095109569547953D
:100C000037952795211580E1380790F0E889F98913
:100C1000108260E874E88EE190E0A701960124D18B
:100C20002150310941095109569547953795279526
:100C3000EC85FD853083EE85FF852083188EEC8959
:100C4000FD89B082EA89FB89808180618083EA899D
:100C5000FB89808188608083EA89FB898081806844
:100C60008083EA89FB8980818F7D8083DF91CF91AA
:100C7000FF90EF90DF90CF90BF9008951F920F925A
:100C80000FB60F9211240BB60F922F938F939F9351
:100C9000EF93FF93E0918F02F09190028081E091B9
:100CA0009502F091960282FD12C090818091980287
:100CB0008F5F8F7320919902821751F0E091980213
:100CC000F0E0E158FD4F958F8093980201C080813C
:100CD000FF91EF919F918F912F910F900BBE0F90ED
:100CE0000FBE0F901F9018951F920F920FB60F9284
:100CF00011240BB60F922F933F934F935F936F93F3
:100D00007F938F939F93AF93BF93EF93FF938FE75F
:100D100092E0AEDEFF91EF91BF91AF919F918F91E5
:100D20007F916F915F914F913F912F910F900BBEEB
:100D30000F900FBE0F901F9018958FE792E02FDE57
:100D400021E0892B09F420E0822F0895109282027D
:100D50001092810288EE93E0A0E0B0E080938302DD
:100D600090938402A0938502B09386028EE392E072
:100D70009093800280937F0285EC90E090938C02A8
:100D800080938B0284EC90E090938E0280938D028E
:100D900080EC90E09093900280938F0281EC90E041
:100DA000909392028093910282EC90E0909394024F
:100DB0008093930286EC90E0909396028093950244
:100DC000109298021092990210929A0210929B022D
:100DD0000895CF92DF92EF92FF920F931F93CF93DC
:100DE000DF937C016A01EB0100E010E00C151D05AA
:100DF00071F06991D701ED91FC910190F081E02DA6
:100E0000C7011995892B19F00F5F1F4FEFCFC8014C
:100E1000DF91CF911F910F91FF90EF90DF90CF90D6
:100E200008956115710581F0DB010D900020E9F74F
:100E3000AD0141505109461B570BDC01ED91FC916E
:100E40000280F381E02D199480E090E00895E9CFCD
:100E5000089582DCFDDF0DDACCEFD4E022DA2097B2
:100E6000E9F3CADDFBCF0895A1E21A2EAA1BBB1B32
:100E7000FD010DC0AA1FBB1FEE1FFF1FA217B30766
:100E8000E407F50720F0A21BB30BE40BF50B661F7C
:100E9000771F881F991F1A9469F760957095809540
:100EA00090959B01AC01BD01CF010895EE0FFF1F8E
:100EB0000590F491E02D19940790F691E02D199486
:100EC0000F931F93CF93DF93CDB7DEB72E970FB657
:100ED000F894DEBF0FBECDBF0E891F8986E08C83DC
:100EE0001A8309838FEF9FE79E838D83AE01465E51
:100EF0005F4F688D798DCE01019610D0EF81F88516
:100F0000E00FF11F10822E960FB6F894DEBF0FBED1
:100F1000CDBFDF91CF911F910F9108952F923F92F6
:100F20004F925F926F927F928F929F92AF92BF92F9
:100F3000CF92DF92EF92FF920F931F93CF93DF93A5
:100F4000CDB7DEB72C970FB6F894DEBF0FBECDBF7E
:100F50007C016B018A01FC0117821682838181FF6B
:100F6000B0C1CE0101964C01F7019381F60193FDCA
:100F7000859193FF81916F01882309F49EC1853289
:100F800039F493FD859193FF81916F01853221F4AE
:100F9000B70190E0C7D1E8CF512C312C20E02032AE
:100FA000A0F48B3269F030F4803259F0833269F466
:100FB00020612CC08D3239F0803339F4216026C095
:100FC0002260246023C0286021C027FD27C030EDA7
:100FD000380F3A3078F426FF06C0FAE05F9E300DF5
:100FE0001124532E13C08AE0389E300D1124332E65
:100FF00020620CC08E3221F426FD5FC1206406C041
:101000008C3611F4206802C0883641F4F60193FD55
:10101000859193FF81916F018111C1CF982F9F7DA1
:101020009554933028F40C5F1F4FFFE3F9830DC0F4
:10103000833631F0833771F0833509F057C021C012
:10104000F801808189830E5F1F4F44244394512C03
:10105000540114C03801F2E06F0E711CF801A08039
:10106000B18026FF03C0652D70E002C06FEF7FEFF7
:10107000C5012C874CD12C0183012C852F77222E82
:1010800016C03801F2E06F0E711CF801A080B1802B
:1010900026FF03C0652D70E002C06FEF7FEFC50132
:1010A0002C872AD12C012C852068222E830123FC39
:1010B00019C0832D90E048165906A0F4B70180E2CC
:1010C00090E030D13A94F5CFF50127FC859127FEC9
:1010D00081915F01B70190E025D131103A94F1E0A0
:1010E0004F1A51084114510479F7DEC0843611F0CB
:1010F000893631F5F80127FF07C06081718182814F
:1011000093810C5F1F4F08C060817181882777FD34
:101110008095982F0E5F1F4F2F76B22E97FF09C034
:1011200090958095709561957F4F8F4F9F4F206868
:10113000B22E2AE030E0A40127D1A82EA81843C07F
:10114000853729F42F7EB22E2AE030E025C0F22F19
:10115000F97FBF2E8F36C1F018F4883579F0ADC015
:10116000803719F0883721F0A8C02F2F2061B22EC8
:10117000B4FE0DC08B2D8460B82E09C024FF0AC0B8
:101180009F2F9660B92E06C028E030E005C020E110
:1011900030E002C020E132E0F801B7FE07C0608114
:1011A0007181828193810C5F1F4F06C060817181C4
:1011B00080E090E00E5F1F4FA401E6D0A82EA81893
:1011C000FB2DFF77BF2EB6FE0BC02B2D2E7FA51457
:1011D00050F4B4FE0AC0B2FC08C02B2D2E7E05C010
:1011E0007A2C2B2D03C07A2C01C0752C24FF0DC046
:1011F000FE01EA0DF11D8081803311F4297E09C0C2
:1012000022FF06C07394739404C0822F867809F07D
:10121000739423FD12C020FF06C05A2C731418F4D7
:10122000530C5718732C731460F4B70180E290E0EC
:101230002C8778D073942C85F6CF731410F437185C
:1012400001C0312C24FF11C0B70180E390E02C874E
:1012500069D02C8522FF16C021FF03C088E590E0ED
:1012600002C088E790E0B7010CC0822F867851F069
:1012700021FD02C080E201C08BE227FD8DE2B701B3
:1012800090E050D0A51430F4B70180E390E04AD04C
:101290005A94F8CFAA94F401EA0DF11D8081B701A8
:1012A00090E040D0A110F6CF332009F45DCEB70115
:1012B00080E290E037D03A94F7CFF70186819781AA
:1012C00002C08FEF9FEF2C960FB6F894DEBF0FBED3
:1012D000CDBFDF91CF911F910F91FF90EF90DF90E5
:1012E000CF90BF90AF909F908F907F906F905F90C6
:1012F0004F903F902F900895FC01059061507040F1
:101300000110D8F7809590958E0F9F1F0895FC01CE
:101310006150704001900110D8F7809590958E0F24
:101320009F1F08950F931F93CF93DF93182F092FBB
:10133000EB018B8181FD03C08FEF9FEF20C082FF07
:1013400010C04E815F812C813D81421753077CF490
:10135000E881F9819F012F5F3F4F398328831083F4
:1013600006C0E885F985812F1995892B29F72E81EB
:101370003F812F5F3F4F3F832E83812F902FDF913F
:10138000CF911F910F910895FA01AA27283051F1AA
:10139000203181F1E8946F936E7F6E5F7F4F8F4FA6
:1013A0009F4FAF4FB1E03ED0B4E03CD0670F781F05
:1013B000891F9A1FA11D680F791F8A1F911DA11DEA
:1013C0006A0F711D811D911DA11D20D009F4689423
:1013D0003F912AE0269F11243019305D3193DEF6CB
:1013E000CF010895462F4770405D4193B3E00FD081
:1013F000C9F7F6CF462F4F70405D4A3318F0495D6C
:1014000031FD4052419302D0A9F7EACFB4E0A6954E
:101410009795879577956795BA95C9F70097610570
:10142000710508959B01AC010A2E069457954795C6
:1014300037952795BA95C9F7620F731F841F951FBB
:08144000A01D0895F894FFCFF0
:1014480001000000426F6F742055700048756D6987
:1014580064697479202825293A2000256400546598
:101468006D70657261747572652028C2B043293A3F
:10147800200000000000F802E906000000007A05DC
:0A148800E906CF04E804DA04590570
:00000001FF
