:1000000008C1000036C1000034C1000032C1000048
:1000100030C100002EC100002CC100002AC1000028
:1000200028C1000026C1000024C1000022C1000038
:1000300020C100001EC100001CC100001AC1000048
:1000400018C1000016C1000014C1000012C1000058
:1000500010C100000EC100000CC10000BCC20000B5
:1000600008C10000F9C500002DC6000002C1000053
:1000700000C10000FEC00000FCC00000FAC000008B
:10008000F8C00000F6C00000F4C00000F2C000009C
:10009000F0C00000EEC00000ECC00000EAC00000AC
:1000A000E8C00000E6C00000E4C00000E2C00000BC
:1000B000E0C00000DEC00000DCC00000DAC00000CC
:1000C000D8C00000D6C00000D4C00000D2C00000DC
:1000D000D0C00000CEC00000CCC00000CAC00000EC
:1000E000C8C000001404170406040A0410044E04D7
:1000F0001B041F04250429042D04330437043B0486
:100100004E0441044504490400000A0B02090C0D89
:100110000E080703040100000000000000000000BA
:1001200000000000000000000000000000000000CF
:10013000000000001211100000000000000000008C
:1001400000000000000000000000000000000102AC
:1001500010202008081020401020408002010201D9
:100160000804020101020408102040808040201091
:1001700008040201800402018040201008040201EA
:100180000804020101020408102040800102040852
:10019000102040800505050507050808080802022B
:1001A00002020A0A08080404040401010101010111
:1001B00001010303030303030303040707070C0CF4
:1001C0000C0C0C0C0C0C02020202060606060606BB
:1001D00006060B0B0B0B0B0B0B0B00002200250074
:1001E00028002B002E003100340002010000050120
:1001F00008010B0100002100240027002A002D0027
:100200003000330001010000040107010A018D01E3
:10021000940611241FBECFEFD1E2DEBFCDBF00E0B8
:100220000CBF12E0A0E0B2E0E4ECF5E100E00BBFAF
:1002300002C007900D92A835B107D9F723E0A8E5D1
:10024000B2E001C01D92AA31B207E1F712E0C2E1AB
:10025000D2E000E006C022970109FE010BBF0E9418
:10026000DC0ACE30D10780E00807A9F753D70C94F9
:10027000E00AC6CE26E040E855E260E070E08DE797
:1002800092E08AD420E042E060E18CE592E0F9D08F
:1002900064E072E08CE592E0C8D560ED77E080E044
:1002A00090E006C241E060E08CE592E0D2D06CE0E4
:1002B00072E08CE592E0B9D56091580270915902D4
:1002C000882777FD8095982F0E949909AB01BC0182
:1002D00022E030E08CE592E01BD742E060E08CE564
:1002E00092E0B7D06BE172E08CE592E09ED5609130
:1002F0005A0270915B02882777FD8095982F0E94A3
:100300009909AB01BC0122E030E08CE592E000D716
:1003100068EE73E080E090E0CBC1CF92EF920F9354
:1003200087E0C82E96E0E92E05E024E049E068E089
:100330008CE592E02CD10F91EF90CF900895CF9360
:10034000DF93EC0160E08E81E3D281E090E0E7D1C1
:1003500061E08E81DDD281E090E0E1D160E08E81CC
:10036000D7D284E690E0DF91CF91D9C1EF92FF928E
:100370000F931F93CF93DF938C01C0E0D0E0E62E64
:10038000F12CB7010C2E02C0759567950A94E2F71F
:100390006170F801EC0FFD1F8781BAD22196C4303D
:1003A000D10579F7C801DF91CF911F910F91FF908F
:1003B000EF90C5CFEF92FF920F931F93CF93DF93F0
:1003C0008C01C0E0D0E0E62EF12CB7010C2E02C06B
:1003D000759567950A94E2F76170F801EC0FFD1FBF
:1003E000878196D22196C830D10579F7C801DF916F
:1003F000CF911F910F91FF90EF90A1CF1F93CF93BB
:10040000DF93EC01162F642F8C8182D28D818F3F78
:1004100011F060E07DD28F85612F84FF05C0CE0191
:10042000DF91CF911F91C6CF70E084E075956795FD
:100430008A95E1F7CE019ADF612FCE01DF91CF914E
:100440001F9194CF40E0DACF61E0FCDF80ED97E0D0
:1004500066C1443008F043E0FC012389421710F0E4
:100460004FEF420FFC01E40FF11D2489260F206895
:10047000622FE8CFFC016089262F2460208B6C60FE
:10048000E1CF0F931F93CF93DF93EC01423018F02D
:100490008F8588608F874B8B1C8A80E48D8B6E8B59
:1004A00070E0605C7F4F6F8B222329F0413019F49C
:1004B0008F8584608F8761E08C81F1D18D818F3F42
:1004C00011F061E0ECD161E08E81E9D100E010E053
:1004D0008F8584FF03C088E090E002C084E090E054
:1004E000081719074CF4FE01E00FF11F61E0878146
:1004F000D6D10F5F1F4FECCF80E593EC10D160E0B9
:100500008C8106D260E08E8103D28D818F3F11F005
:1005100060E0FED16F8564FD16C063E0CE0126DF8A
:1005200084E991E1FCD063E0CE0120DF84E991E130
:10053000F6D063E0CE011ADF86E990E0F0D062E009
:10054000CE0114DF11C06062CE017CDF84E991E14D
:10055000E6D06F856062CE0175DF86E990E0DFD07E
:100560006F856062CE016EDF6F856062CE016ADFEB
:1005700084E0888BCE017EDFCE0166DF82E0898B4E
:1005800066E0CE01DF91CF911F910F915BCFCF92AB
:10059000EF920F93FC011382128283E392E0918326
:1005A000808364838FEF8583468327830087E1867A
:1005B000C2861386148615861686178620E041E0CB
:1005C00060E1CF010F91EF90CF905BCF41E016DF5C
:1005D00081E090E008951F920F920FB60F921124C0
:1005E0002F933F938F939F93AF93BF938091750207
:1005F00090917602A0917702B091780230917402C6
:1006000023E0230F2D3720F40196A11DB11D05C055
:1006100026E8230F0296A11DB11D2093740280933A
:10062000750290937602A0937702B093780280913E
:10063000790290917A02A0917B02B0917C0201969E
:10064000A11DB11D8093790290937A02A0937B0241
:10065000B0937C02BF91AF919F918F913F912F9169
:100660000F900FBE0F901F9018953FB7F894809190
:10067000790290917A02A0917B02B0917C0226B51A
:10068000A89B05C02F3F19F00196A11DB11D3FBFCA
:100690006627782F892F9A2F620F711D811D911D5A
:1006A00042E0660F771F881F991F4A95D1F708957A
:1006B0008F929F92AF92BF92CF92DF92EF92FF9272
:1006C0006B017C01D2DF4B015C01C114D104E10458
:1006D000F104E1F029D5C9DF681979098A099B0974
:1006E000683E73408105910580F321E0C21AD1086C
:1006F000E108F10888EE880E83E0981EA11CB11C69
:10070000C114D104E104F10431F7DFCFFF90EF9081
:10071000DF90CF90BF90AF909F908F9008958230E0
:10072000910538F0880F991F880F991F0597019739
:10073000F1F70895789484B5826084BD84B58160B2
:1007400084BD85B5826085BD85B5816085BDEEE6D9
:10075000F0E0808181608083E1E8F0E010828081B8
:1007600082608083808181608083E0E8F0E0808126
:1007700081608083E1EBF0E0808184608083E0EB46
:10078000F0E0808181608083E1E9F0E08081826037
:100790008083808181608083E0E9F0E080818160F6
:1007A0008083E1EAF0E080818260808380818160E3
:1007B0008083E0EAF0E0808181608083E1E2F1E023
:1007C000808182608083808181608083E0E2F1E0CB
:1007D000808181608083EAE7F0E0808184608083AB
:1007E0008081826080838081816080838081806855
:1007F00080831092C100089590E0FC013197E231AE
:10080000F10508F04BC0EE58FF4FD0C68091800034
:100810008F7703C0809180008F7D80938000089542
:1008200080918000877FF9CF84B58F7702C084B52F
:100830008F7D84BD08958091B0008F7703C0809133
:10084000B0008F7D8093B0000895809190008F77E5
:1008500007C0809190008F7D03C080919000877FBA
:100860008093900008958091A0008F7707C08091B9
:10087000A0008F7D03C08091A000877F8093A0009F
:100880000895809120018F7707C0809120018F7D8E
:1008900003C080912001877F809320010895CF932A
:1008A000DF9390E0FC01E25BFE4F2491FC01EC56EB
:1008B000FE4F8491882349F190E0880F991FFC0135
:1008C000EC50FE4FA591B49186529E4FFC01C5910C
:1008D000D4919FB7611108C0F8948C912095822320
:1008E0008C93888182230AC0623051F4F8948C91F1
:1008F000322F309583238C938881822B888304C088
:10090000F8948C91822B8C939FBFDF91CF910895A7
:100910000F931F93CF93DF931F92CDB7DEB7282F8E
:1009200030E0F901E85FFE4F8491F901E25BFE4F90
:100930001491F901EC56FE4F04910023C1F0882375
:1009400019F0698359DF6981E02FF0E0EE0FFF1F96
:10095000E652FE4FA591B4919FB7F8948C91611126
:1009600003C01095812301C0812B8C939FBF0F90F2
:10097000DF91CF911F910F910895FC01818D228D00
:1009800090E0805C9F4F821B91098F739927089597
:10099000FC01918D828D981731F0828DE80FF11D49
:1009A000858D90E008958FEF9FEF0895FC01918D64
:1009B000828D981761F0828DDF01A80FB11D5D96C1
:1009C0008C91928D9F5F9F73928F90E008958FEF2F
:1009D0009FEF08958BE896E0892B39F080E090E056
:1009E000892B19F098D1811125C080E090E0892BE6
:1009F00041F080E090E0892B21F00E9400008111FD
:100A00001CC080E090E0892B41F080E090E0892BD1
:100A100021F00E940000811113C080E090E0892B3A
:100A2000A1F080E090E0892B81F00E94000081110C
:100A30000AC008950E940000D8CF0E940000E1CFB4
:100A40000E940000EACF0C9400000895FC01848D00
:100A5000DF01A80FB11DA35ABF4F2C91848D90E0E8
:100A600001968F739927848FA689B7892C93A089C3
:100A7000B1898C9180648C93938D848D981306C07A
:100A80000288F389E02D80818F7D80830895CF9344
:100A9000DF93EC01888D8823C1F0EA89FB8980818E
:100AA00085FD05C0A889B9898C9186FD0EC00FB659
:100AB00007FCF5CF808185FFF2CFA889B9898C9199
:100AC00085FFEDCFCE01C2DFE8CFDF91CF91089552
:100AD000CF92DF92FF920F931F93CF93DF931F92DA
:100AE000CDB7DEB76C0181E0D60158968C9358974C
:100AF0005B969C915B975C968C915C97981307C072
:100B00005096ED91FC915197808185FD2DC0F601A5
:100B1000038D10E00F5F1F4F0F731127F02EF601AA
:100B2000848DF81210C00FB607FCF9CFD60150968D
:100B3000ED91FC915197808185FFF1CFC6016983CA
:100B400085DF6981ECCF838DE80FF11DE35AFF4FFC
:100B50006083D6015B960C935B975296ED91FC9166
:100B60005397808180620CC0D6015696ED91FC911E
:100B7000579760835096ED91FC91519780818064E6
:100B8000808381E090E00F90DF91CF911F910F91D2
:100B9000FF90DF90CF900895BF92CF92DF92EF92B7
:100BA000FF92CF93DF93EC016A017B01B22EE889BB
:100BB000F98982E08083411581EE5807610571054E
:100BC00099F060E079E08DE390E0A7019601CCD444
:100BD0002150310941095109569547953795279577
:100BE000211580E1380790F0E889F989108260E8E2
:100BF00074E88EE190E0A7019601B6D42150310946
:100C0000410951095695479537952795EC85FD85FE
:100C10003083EE85FF852083188EEC89FD89B082B4
:100C2000EA89FB89808180618083EA89FB898081F0
:100C300088608083EA89FB89808180688083EA8973
:100C4000FB8980818F7D8083DF91CF91FF90EF9032
:100C5000DF90CF90BF9008951F920F920FB60F9222
:100C600011240BB60F922F938F939F93EF93FF93C3
:100C7000E0918D02F0918E028081E0919302F091DB
:100C8000940282FD12C09081809196028F5F8F73D3
:100C900020919702821751F0E0919602F0E0E3581C
:100CA000FD4F958F8093960201C08081FF91EF9157
:100CB0009F918F912F910F900BBE0F900FBE0F90B1
:100CC0001F9018951F920F920FB60F9211240BB61A
:100CD0000F922F933F934F935F936F937F938F93D5
:100CE0009F93AF93BF93EF93FF938DE792E0AEDEB8
:100CF000FF91EF91BF91AF919F918F917F916F91F4
:100D00005F914F913F912F910F900BBE0F900FBEAF
:100D10000F901F9018958DE792E02FDE21E0892B30
:100D200009F420E0822F08951092800210927F0231
:100D300088EE93E0A0E0B0E080938102909382027D
:100D4000A0938302B09384028BE392E090937E029F
:100D500080937D0285EC90E090938A0280938902D3
:100D600084EC90E090938C0280938B0280EC90E076
:100D700090938E0280938D0281EC90E0909390028C
:100D800080938F0282EC90E0909392028093910284
:100D900086EC90E0909394028093930210929602D6
:100DA0001092970210929802109299020895CF9291
:100DB000DF92EF92FF920F931F93CF93DF937C010B
:100DC0006A01EB0100E010E00C151D0571F069915E
:100DD000D701ED91FC910190F081E02DC7011995AB
:100DE000892B19F00F5F1F4FEFCFC801DF91CF9113
:100DF0001F910F91FF90EF90DF90CF9008956115B4
:100E0000710581F0DB010D900020E9F7AD01415043
:100E10005109461B570BDC01ED91FC910280F381D7
:100E2000E02D199480E090E00895E9CFDC01ED9188
:100E3000FC910190F081E02D19948F929F92AF92D6
:100E4000BF92DF92EF92FF920F931F93CF93DF93A6
:100E5000CDB7DEB7A1970FB6F894DEBF0FBECDBFFA
:100E60007C01F42FD52ECB0119A2223008F42AE000
:100E70008E010F5D1F4F822E912CA12CB12C6F2F54
:100E80007D2DA501940170D3F22FD32ECA010150FC
:100E900011096A3014F4E0E301C0E7E3E60FD8017A
:100EA000EC93232B242B252B51F7B801C701A7DF87
:100EB000A1960FB6F894DEBF0FBECDBFDF91CF91E4
:100EC0001F910F91FF90EF90DF90BF90AF909F9098
:100ED0008F900895CF92DF92EF92FF920F931F931E
:100EE000CF93DF93EC016A017B012115310579F481
:100EF000E881F9810190F081E02D642FDF91CF919D
:100F00001F910F91FF90EF90DF90CF9019942A30AE
:100F10003105D9F477FF18C06DE288DF8C014427D2
:100F20005527BA014C195D096E097F092AE0CE01E7
:100F300084DF800F911FDF91CF911F910F91FF9060
:100F4000EF90DF90CF9008952AE0B701A601CE017F
:100F5000DF91CF911F910F91FF90EF90DF90CF9095
:100F60006CCF4F925F926F927F928F929F92AF92CF
:100F7000BF92CF92DF92EF92FF920F931F93CF9386
:100F8000DF93EC016A017B01B22E9A01AB01C7012C
:100F9000B601E6D2882319F06AE472E024C0260183
:100FA0003701E89477F82FEF3FEF4FE75FE7C30192
:100FB000B201D6D281110CC02FEF3FEF4FE75FE7B0
:100FC000C301B20117D118161CF46EE472E00BC015
:100FD0002FEF3FEF4FE75FE4C701B6015AD2181673
:100FE000A4F462E572E0CE01DF91CF911F910F91E1
:100FF000FF90EF90DF90CF90BF90AF909F908F9039
:101000007F906F905F904F90FACE2FEF3FEF4FE7BA
:101010005FECC701B601EED087FDE3CF20E030E002
:10102000A901C701B601E6D087FF09C06DE2CE0174
:10103000FDDE8C01F7FAF094F7F8F09402C000E0BE
:1010400010E0A12C60E070E080E09FE3AB1439F089
:1010500020E030E040E251E4D1D0A394F7CF9B01EF
:10106000AC01C701B60162D06B017C0134D12B0108
:101070003C015DD19B01AC01C701B60156D06B01AB
:101080007C012AE0B301A201CE01D7DE080F191FAF
:10109000BB2031F066E572E0CE01B1DE080F191F0A
:1010A0007B2C772019F120E030E040E251E4C701C9
:1010B000B601F3D16B017C0109D14B01AA2497FC45
:1010C000A094BA2C2AE030E0B501A401CE0102DFE1
:1010D000080F191FC501B4012CD19B01AC01C70138
:1010E000B60123D06B017C017A94DBCFC801DF917C
:1010F000CF911F910F91FF90EF90DF90CF90BF9015
:10110000AF909F908F907F906F905F904F900895D9
:1011100028CF08950FDBFDDFADD8CAEED4E0C2D8EA
:101120002097E9F357DCFBCF08955058BB27AA2737
:101130000ED075C166D130F06BD120F031F49F3FF5
:1011400011F41EF45BC10EF4E095E7FB51C1E92FE9
:1011500077D180F3BA17620773078407950718F0F1
:1011600071F49EF58FC10EF4E0950B2EBA2FA02DD1
:101170000B01B90190010C01CA01A0011124FF2744
:10118000591B99F0593F50F4503E68F11A16F0403F
:10119000A22F232F342F4427585FF3CF469537953E
:1011A0002795A795F0405395C9F77EF41F16BA0B03
:1011B000620B730B840BBAF09150A1F0FF0FBB1FB1
:1011C000661F771F881FC2F70EC0BA0F621F731FFA
:1011D000841F48F4879577956795B795F7959E3F57
:1011E00008F0B3CF9395880F08F09927EE0F9795E5
:1011F00087950895D9D008F481E008950CD00FC1E7
:1012000007D140F0FED030F021F45F3F19F0F0C07C
:10121000511139C1F3C014D198F39923C9F355235F
:10122000B1F3951B550BBB27AA27621773078407D9
:1012300038F09F5F5F4F220F331F441FAA1FA9F38F
:1012400033D00E2E3AF0E0E830D091505040E69581
:10125000001CCAF729D0FE2F27D0660F771F881FE2
:10126000BB1F261737074807AB07B0E809F0BB0BD1
:10127000802DBF01FF2793585F4F2AF09E3F5105F5
:1012800068F0B6C000C15F3FECF3983EDCF3869592
:1012900077956795B795F7959F5FC9F7880F911D6B
:1012A0009695879597F90895E1E0660F771F881F57
:1012B000BB1F621773078407BA0720F0621B730B0A
:1012C000840BBA0BEE1F88F7E095089504D068945C
:1012D000B111D9C00895BCD088F09F5790F0B92FB4
:1012E0009927B751A0F0D1F0660F771F881F991F7B
:1012F0001AF0BA95C9F712C0B13081F0C3D0B1E08D
:101300000895C0C0672F782F8827B85F39F0B93F9C
:10131000CCF3869577956795B395D9F73EF490957C
:101320008095709561957F4F8F4F9F4F0895E894FA
:1013300009C097FB3EF490958095709561957F4F1D
:101340008F4F9F4F9923A9F0F92F96E9BB279395CB
:10135000F695879577956795B795F111F8CFFAF4DB
:10136000BB0F11F460FF1BC06F5F7F4F8F4F9F4F0C
:1013700016C0882311F096E911C0772321F09EE86A
:10138000872F762F05C0662371F096E8862F70E0D0
:1013900060E02AF09A95660F771F881FDAF7880FAA
:1013A0009695879597F90895990F0008550FAA0B00
:1013B000E0E8FEEF16161706E807F907C0F0121668
:1013C0001306E407F50798F0621B730B840B950B6B
:1013D00039F40A2661F0232B242B252B21F40895C0
:1013E0000A2609F4A140A6958FEF811D811D08955D
:1013F00097F99F6780E870E060E008959FEF80ECC8
:10140000089500240A94161617061806090608956A
:1014100000240A9412161306140605060895092ED0
:101420000394000C11F4882352F0BB0F40F4BF2B3F
:1014300011F460FF04C06F5F7F4F8F4F9F4F08957F
:1014400057FD9058440F551F59F05F3F71F0479575
:10145000880F97FB991F61F09F3F79F0879508955A
:10146000121613061406551FF2CF4695F1DF08C079
:10147000161617061806991FF1CF86957105610596
:1014800008940895E894BB2766277727CB0197F93E
:1014900008958ADF08F48FEF08950BD0C0CFB1DF35
:1014A00028F0B6DF18F0952309F0A2CFA7CF1124BA
:1014B000EACFC6DFA0F3959FD1F3950F50E0551FFB
:1014C000629FF001729FBB27F00DB11D639FAA2799
:1014D000F00DB11DAA1F649F6627B00DA11D661FE8
:1014E000829F2227B00DA11D621F739FB00DA11D09
:1014F000621F839FA00D611D221F749F3327A00DC3
:10150000611D231F849F600D211D822F762F6A2F5E
:1015100011249F5750408AF0E1F088234AF0EE0FE3
:10152000FF1FBB1F661F771F881F91505040A9F7F0
:101530009E3F510570F05CCFA6CF5F3FECF3983E25
:10154000DCF3869577956795B795F795E7959F5F57
:10155000C1F7FE2B880F911D9695879597F90895F1
:1015600023DF880B990B0895A1E21A2EAA1BBB1B3F
:10157000FD010DC0AA1FBB1FEE1FFF1FA217B3075F
:10158000E407F50720F0A21BB30BE40BF50B661F75
:10159000771F881F991F1A9469F760957095809539
:1015A00090959B01AC01BD01CF010895EE0FFF1F87
:1015B0000590F491E02D19940790F691E02D19947F
:0415C000F894FFCFCD
:1015C40001000000426F6F742055700048756D690A
:1015D40064697479202825293A200054656D706562
:1015E4007261747572652028C2B043293A200000E4
:1015F400000000E602D706000000006805D706BD1B
:1016040004D604C80447050D0A006E616E00696EB5
:0816140066006F7666002E00EF
:00000001FF
